:100000000000032091CC0000531F00002586000053
:10001000531F0000531F0000531F0000000000008A
:10002000000000000000000000000000531F00005E
:10003000531F000000000000531F0000531F00006A
:10004000B9CC0000C1CC0000C9CC0000D1CC00006C
:10005000D9CC0000E1CC0000E9CC0000F1CC0000DC
:10006000F9CC000001CD000009CD000011CD000049
:1000700019CD000021CD000029CD000031CD0000B8
:1000800039CD0000FDD30000FDD30000FDD30000FA
:10009000FDD30000FDD30000FDD30000FDD3000020
:1000A00041CD000049CD000051CD000059CD0000E8
:1000B00061CD000069CD0000FDD3000071CD0000CE
:1000C00079CD000081CD000089CD000091CD0000E8
:1000D00099CD0000A1CD0000A9CD0000FDD3000006
:1000E000FDD30000FDD30000FDD30000FDD30000D0
:1000F000FDD30000FDD30000FDD30000FDD30000C0
:10010000FDD30000FDD30000C74A0000FDD300006E
:10011000FDD30000FDD30000FDD30000B7090000AF
:10012000FDD30000FDD30000FDD300001B490000FB
:10013000494900007B490000AD490000DF4900004B
:10014000FDD30000B1CD0000B9CD0000C1CD00004D
:10015000FDD30000FDD30000FDD30000FDD300005F
:10016000FDD30000FDD30000C9CD0000D1CD0000BB
:10017000D1CD0000D1CD0000D1CD0000D1CD000007
:10018000D1CD0000D9CD000067BA000025BA00002B
:100190003BBA000051BA0000E1CD0000FDD30000E1
:1001A000FDD30000FDD30000FDD30000E9CD000029
:1001B000FDD30000FDD30000F1CD0000F1CD000023
:1001C000F1CD0000F1CD0000F1CD0000F1CD000037
:1001D000FDD30000FDD30000FDD30000FDD30000DF
:1001E000FDD30000FDD30000FDD30000FDD30000CF
:1001F000FDD30000FDD30000FDD30000FDD30000BF
:1003F000FDD30000FDD30000FDD30000FFFFFFFF91
:10040000FFFFFFFFFFFFFFFFFFFFFFFFFEFFFFFFFD
:10041000DFF89416DFF89436DFF89426022030B522
:10042000086018600423DFF88C06DFF88C4601684A
:100430004800106023600C24DFF880261360082336
:100440005360946001EB4105DFF874268B00CC000B
:10045000A9001360546091600E22DFF86836DFF85F
:1004600068461A602021216081B0DFF86046C4F838
:10047000C800012223210FF2686000F069FFC4F870
:10048000B800A4A501680A68536A18600020D4F86F
:10049000B820C4F8B400C4F8C000C4F8C400C4F85C
:1004A000B02015210FF2446000F052FF01460020F9
:1004B0000090C4F8BC1000230FF23862052000F051
:1004C00027FE0146D4F8B80001F034F8002000906F
:1004D00000232A46002100F01BFE0146D4F8BC0090
:1004E00001F028F80120009000230FF2146204F1BB
:1004F000C00100F00DFE0146D4F8BC0001F01AF86E
:100500000020009000230FF208620FF20D2104205A
:1005100000F0FEFD0146D4F8BC0001F00BF800200D
:10052000009000230FF2F4520FF22931042000F062
:10053000EFFD0146D4F8BC0000F0FCFF0020009065
:1005400000232A46002100F0E3FD0146D4F8BC0058
:1005500000F0F0FF0020009000230FF2CC5204F1D5
:10056000CC01012000F0D4FD0146D4F8BC0000F01D
:10057000E1FF0020009000230FF2BC5204F1D001F3
:10058000012000F0C5FD0146D4F8BC0000F0D2FF08
:100590000020009000230FF2B0520FF2D13104205E
:1005A00000F0B6FD0146D4F8BC0000F0C3FF002007
:1005B000009000232A46002100F0AAFD0146D4F84D
:1005C000BC0000F0B7FF0020009000232A46002165
:1005D00000F09EFD0146D4F8B8000FF27C5500F003
:1005E000A9FFD4F8B8203221284600F0B1FE00213E
:1005F0000091C4F8D400014600232A46052000F0EB
:1006000087FD0146D4F8B80000F094FF0220009066
:1006100001230FF2505204F1D801012000F078FDBF
:100620000146D4F8D40000F085FF02200090022398
:100630000FF2385204F1DC0100F06AFD0146D4F8F3
:10064000D40000F077FF01F080FBDFF88404A021E4
:1006500080F833134FF40002026001B030BD10B5D2
:10066000DFF868442022B021204601F055FCD4F880
:10067000B40020B9D4F8B00000F06CFF01E000F045
:1006800053FE0020607522460021012002F074F81C
:10069000002084F82B0004F116020121012002F051
:1006A0006BF8002084F8410004F12C0202210120A3
:1006B00002F062F8002084F8570004F1420203219E
:1006C000012002F059F8002084F86D0004F158026E
:1006D0000421012002F050F8002084F8830004F186
:1006E0006E020521012002F047F8002084F89900ED
:1006F00004F184020621012002F03EF8002004F1FA
:100700009A0284F8AF000721BDE81040012002F0F2
:1007100033B80000000000002DE9F047DFF8B453C3
:10072000DFF8A883286888B0042103F089FBD8F893
:10073000BC1001604FF0000AD8F8B82042600646AD
:100740002968002948D03268916800294FF00009D3
:100750003CD004463068016851F829703878052883
:1007600013D17B6AD5F800C01F680021224600E043
:10077000491C614523D21068B84220D052F8040BBE
:100780000028F5D144F8217019E0387900F005000F
:10079000012814D16946384600F082FDDFF81003C5
:1007A0003969006800EB4117384603F071FB08B95E
:1007B00003F0A5FB20226946384603F077FB30683A
:1007C000816809F101098945C4D3204629680AF1E5
:1007D000010A361D8A45B6D3D8F8C020022A36D879
:1007E0002968DFF8DCA2002679B30446216888680E
:1007F0004FF0000920B32168086850F82970387953
:1008000000F00600022815D16946384600F048FD80
:10081000D8F8C0005AF82010386901EB4017384664
:1008200003F036FB08B903F06AFB2022694638461C
:1008300003F03CFB2068816809F101098945DAD39E
:100840002868761C241D8642D0D303F058FB08B0DC
:10085000BDE8F0872DE9F04F9E4DDFF870B22868B3
:1008600089B0042103F0ECFADBF8BC10904F016072
:100870004FF00008DBF8B8204260044629680029E0
:100880003ED0226891684FF0000A99B381462068F3
:10089000016851F82A603078052813D1736AD5F8B9
:1008A00000C01E6800214A4600E0491C61451AD27A
:1008B0001068B04217D052F8040B0028F5D149F85F
:1008C000216010E0307900F0050001280BD1386874
:1008D00033692022694600EB431003F0D7FA6946DA
:1008E000304600F0F2FC206881680AF1010A8A456E
:1008F000CDD34846296808F10108241D8845C0D396
:10090000DBF8C020022A2ED829686D4E002451B38E
:100910000746396888684FF00008F8B139680868F8
:1009200050F8289099F8040000F0060002280FD132
:10093000DBF8C00056F82000D9F8103020226946B4
:1009400000EB431003F0A2FA6946484600F0BDFCF4
:100950003868816808F101088845DFD32868641C7D
:100960003F1D8442D5D309B0BDE8F08F2DE9F04199
:100970005648D0F8D040D0F8CC50A54219D0032D1D
:1009800038BF032C15D24C4FDFF8308138685FF048
:10099000000670B158F82500301803F024FB01461A
:1009A00058F82400301803F02BFC3868761C864277
:1009B000F0D3BDE8F08110B54749444C4FF4000036
:1009C0000860D4F8C400010365D5D4F8B4004349E5
:1009D00020B9D4F8B00000F0B9FE01E000F0AEFCA0
:1009E0002022B021204601F097FAD4F8B40020B9B3
:1009F000D4F8B00000F0AEFD01E000F095FC00205E
:100A0000607522460021012001F0B6FE002084F826
:100A10002B0004F116020121012001F0ADFE00209F
:100A200084F8410004F12C020221012001F0A4FE0F
:100A3000002084F8570004F142020321012001F054
:100A40009BFE002084F86D0004F15802042101206F
:100A500001F092FE002084F8830004F16E0205216B
:100A6000012001F089FE002084F8990004F184023D
:100A70000621012001F080FE002084F8AF0004F17F
:100A80009A020721012001F077FED4F8C40020F477
:100A90000020C4F8C400D4F8C400410344BF20F4CB
:100AA0008020C4F8C40010BD880100208C01002003
:100AB00050030020D40400209001002054030020A3
:100AC000600300206C03002094010020A800002097
:100AD00004E100E07C03002084E200E0A0000020AC
:100AE0004D656E75526F6F74000000004D616E6150
:100AF000676572004D656E754D616E616765720068
:100B00005265676E53656C28302D32290000000055
:100B10005361766520446174610000004C6F61642C
:100B20002044617461000000436F70795372632840
:100B3000302D322900000000436F7079447374280F
:100B4000302D322900000000436F707944617461D8
:100B500028533E4429000000546573744C69737433
:100B600000000000545F696E74000000545F666C02
:100B70006F61740070B52DED028B044682B0656A1A
:100B8000EE68A8689FED3E8B04E000BF00EB80019B
:100B90004800761E002EF9DC36D503F0B7FB53EC87
:100BA000182B03F0D1FB03F0A5FC761CF2E73044D0
:100BB0005E2180F86E10227950074CBF0FF2383258
:100BC0000FF23C32162106F19A0003F0BFFC06F149
:100BD0009A0120220A546068C10707D547204C219A
:100BE00002B030747174BDEC028B70BD800703D508
:100BF00052213174472002E04E2131744F2002B05F
:100C00007074BDEC028B70BD686004F11403DFF8F2
:100C1000E4620FF200321621304603F097FC2021E7
:100C200031541621D5F8000017A2036806F12C00F4
:100C300003F08CFC06F12C0120220A5416216B686B
:100C400015A206F1420003F081FC06F142012022C8
:100C50000A541621D5F80C0013A2009006F1580092
:100C6000AB6803F073FC06F1580120220A5428698E
:100C700000284CBFC0F10C00C0F10B0097E700004A
:100C80009A9999999999B93F20204375723A2025EC
:100C90002B2D313064000000202041646A3A202569
:100CA0002B2D31306400000020204D6F643A202548
:100CB0002B342E346465252B312E31640000000066
:100CC00070B52DED028B0C4640F201132268416A8B
:100CD000D21A18D0521E44D0521E56D0521E33D0B3
:100CE000521E37D0FC3A72D0521E3AD0521E4CD00F
:100CF000521E22D0521E23D0FD3A32D0521E44D072
:100D0000BDEC028B70BD0079420760D4CD68886865
:100D10000E689FED338B03E000EB800148006D1EF1
:100D2000002DF9DC52D503F0F1FA53EC182B03F047
:100D30000BFB03F0DFFB6D1CF2E70420086140E0D1
:100D40006FF0010008613CE00869042839DA401CB2
:100D5000086136E0086910F1010F32DB401E0861BE
:100D60002FE0086910F1020F03D1C868401CC86069
:100D700027E010F1010F13D0042817D00FF27C33B5
:100D80008A6853F8200082181AE0086910F1020FEF
:100D900003D1C868401EC86013E010F1010F03D1F1
:100DA000C8684042C8600CE0042803D1886840420B
:100DB000886006E00FF244338A6853F82000121A64
:100DC0008A6000212160BDEC028B70BD3060DFF8CD
:100DD0003C23002010602060BDEC028B70BD000041
:100DE0009A9999999999B93F70B5044682B0666A03
:100DF000F06896ED020AB8EEC00AF2EE040A02E0CC
:100E000020EE200A401E0028FADC42BFB2EE041A8F
:100E100080EE010A401CF6D428E028445E2180F8C8
:100E20006E10227950074CBF0FF2CC020FF2D002A5
:100E3000162105F19A0003F089FB05F19A012022A1
:100E40000A546068C10705D547204C21287469748D
:100E500002B070BD800703D552212974472002E0FB
:100E60004E2129744F20687402B070BDDFF88450A1
:100E700028A286ED010A04F114031621284603F086
:100E800065FB20222A543368D3F8000003F080FB6E
:100E9000CDE9000122A2162105F12C0003F056FB3A
:100EA00005F12C0120220A54D6F8040003F070FB4F
:100EB000CDE900011EA2162105F1420003F046FB18
:100EC00005F1420120220A541621F0681CA200906C
:100ED00005F15800B36803F039FB05F158012022F1
:100EE0000A54306900284CBFC0F10C00C0F10B005F
:100EF00093E70000A800002020202020524F00008F
:100F000020202020534F4B3E4143204C4F4B3E5717
:100F1000410000002323252D31322E3132732A0067
:100F200020204375723A20252B2D31302E34660057
:100F3000202041646A3A20252B2D31302E34660062
:100F400020204D6F643A20252B332E336465252BEA
:100F5000312E316400000000F0B40B68426A40F2A8
:100F600001141B1B17D05B1E43D05B1E55D05B1EAC
:100F700032D05B1E36D0FC3B00F0B9805B1E38D00F
:100F80005B1E4AD05B1E20D05B1E21D0FD3B30D0C3
:100F90005B1E42D05EE00079430700F1A880D06874
:100FA000136892ED020AB8EEC00AF2EE040A02E0FB
:100FB00020EE200A401E0028FADC42BFB2EE041ADE
:100FC00080EE010A401CF6D48FE00420106140E05E
:100FD0006FF0010010613CE01069042838DA401C11
:100FE000106135E0106910F1010F31DB401E106116
:100FF0002EE0106910F1020F03D1D068401CD060C0
:1010000026E010F1010F13D0042817D00FF2EC04E2
:10101000936854F82000C31819E0106910F1020F0A
:1010200003D1D068401ED06012E010F1010F03D14F
:10103000D0684042D0600BE0042803D19068404261
:10104000906005E02DA4936854F820001B1A93606B
:1010500000230B60906842F20F7344F61F611C1866
:101060008C4230D3DFF8BC52D46880FB0565A810F1
:1010700000EBD0701D18641C8D42D46023D3DFF8C0
:10108000A46280FB0676B01000EBD0701D18641CC3
:101090008D42D46017D3DFF88C6280FB0676B010E7
:1010A00000EBD0701D18641C8D42D4600BD3DFF8A8
:1010B000746280FB0676641CB010D46000EBD070C4
:1010C0001C188C42CED2014640F2E7334C1E9C42A3
:1010D00024BF01F2E731994290600DD2D36800EB52
:1010E00080015B1E4800D360EDE783ED000A074BEB
:1010F000002018600860ADE7F0BC704701000000F8
:101100000A00000064000000E80300005C01002009
:101110002DE9F04381B006462DED028B0D46DDF83A
:10112000289090461F462821012002F089FE04469F
:10113000DFF8F8032670C4F804900168E1604146C6
:101140000268521C02602761102204F1140003F0AF
:1011500043FA002084F823002178052900F28580D5
:10116000DFE801F07E03337E7E7E142002F092FAE7
:10117000606205600020616ADFF8B45308619FED8A
:10118000438B606A0168096800F1080600F10C07EA
:1011900031600020386042F2107838680930132836
:1011A00063D23068404501DAA8425EDA03F0AEF857
:1011B00002460B4651EC180B03F0C6F803F09AF9FF
:1011C00030603868401C3860E7E7142002F062FAAB
:1011D000606205600020616A08610022616A086837
:1011E00090ED000A01F10C000831DFED2A0AB2EEA1
:1011F000041ADFED291A9FED292ADFED492A03E0C1
:1012000020EE010A521E00BF02F10903132B0260F7
:1012100031D2B5EE400AF1EE10FA05DDB4EE620A05
:10122000F1EE10FA3FF5ECAFB4EE420AF1EE10FA2F
:1012300010DAB5EE400AF1EE10FA05D5B4EE610A07
:10124000F1EE10FABFF6DCAFB4EE600AF1EE10FA80
:1012500040F11180B2EE043A80EE030A521CD3E74B
:10126000042002F017FA606205602046BDEC028B94
:1012700001B0BDE8F083BDEEC00A81ED000A204652
:10128000BDEC028B01B0BDE8F08300009A999999FA
:101290009999B93F003C1CC6FFBF79C4013C1C466C
:1012A000F0B400F1140292E8F0000B1D83E8F000A6
:1012B00004784C610278012A18BF022A03D1406ADF
:1012C000026813688B61F0BC704730B504460D4668
:1012D00081B0102204F11401281D03F0B5F9E8B122
:1012E00020786969814219D1012803D002280AD0E7
:1012F00001B030BD2079410710D4616A0A68A8693D
:10130000106001B030BD2079410707D4606A95EDC7
:10131000060A0168BDEEC00A81ED000A01B030BDC9
:1013200000C07944676666660178012902D0022907
:1013300002D07047FFF71EBCFFF756BD0278012AA6
:1013400002D0022A02D07047FFF7BABCFFF704BEF2
:101350002DE9F04F81B006460F462DED028B144665
:101360002421012002F06CFD05460020A8606F607A
:101370000421384602F064FD28601022314605F150
:10138000140003F029F92821012002F059FD064636
:10139000052030700021DFF8949171601022D9F897
:1013A0000000F0600020D9F80010491CC9F80010B6
:1013B000306106F114000FF6541103F00DF900200E
:1013C00086F823003178052900F28980DFE801F0F2
:1013D000824E03828282142002F05CF97062046003
:1013E0000020716A08610022716A086890ED000AA5
:1013F00001F10C000831DFED490AB2EE041ADFED0D
:10140000481A9FED482ADFED482A03E020EE010A42
:10141000521E00BF02F10903132B026079D2B5EE10
:10142000400AF1EE10FA05DDB4EE620AF1EE10FAB0
:101430003FF5ECAFB4EE420AF1EE10FA10DAB5EE79
:10144000400AF1EE10FA05D5B4EE610AF1EE10FA99
:10145000BFF6DCAFB4EE600AF1EE10FA40F159804D
:10146000B2EE043A80EE030A521CD3E7142002F0D5
:1014700011F9706204600020716ADFF8B4B008618D
:101480009FEDB08B706A0168096800F1080800F1EF
:101490000C07C8F800100020386042F2107A386853
:1014A000093013281BD2D8F80000504502DA5845FD
:1014B00080F2158002F02AFF02460B4651EC180B11
:1014C00002F042FF03F016F8C8F800003868401C2C
:1014D0003860E4E7042002F0DDF870620460A86878
:1014E0006968884206D02A6842F82060A868411CD2
:1014F000A960B060286801684A6A1460D9F80400DD
:10150000401CC9F804002846BDEC028B01B0BDE8C0
:10151000F08FBDEEC00A81ED000AE0E7003C1CC67A
:10152000FFBF79C4013C1C4600C079447803002009
:10153000F1D8FFFF826843689A4201D101207047C9
:10154000036843F8221002F1010CC0F808C08A6059
:10155000002070472DE9F04F81B007462DED048B38
:1015600084B0B868DFF808470FF2A8720FF2887BE2
:101570000FF2907A019007F1140338690090162158
:10158000204602F0E3FF202222544FF00008B86802
:10159000072888BF072000289FED648ADFED648A52
:1015A0009FED649ADFED649A4FF0160900F0B08069
:1015B00002903968FA68424451F82260317805296E
:1015C00008F1010000F29C80DFE801F0925A211E30
:1015D000100319FB00F0251806F1140352461621DA
:1015E000284602F0B3FF2021295489E019FB00F0BE
:1015F000251806F114035A461621284602F0A6FFC4
:10160000202129547CE000BF0FF2D86272E072689A
:10161000716A53050DD519FB00F0251806F1140366
:101620000FF278621621284602F090FF20212954FB
:1016300066E0D2054AD40B6893ED000AB4EE690A5D
:10164000F1EE10FA04D5B4EE490AF1EE10FA09DA17
:10165000B4EE680AF1EE10FA38DBB4EE480AF1EEA7
:1016600010FA33D519FB00F0251810EE100A02F01D
:101670008FFFCDE9000106F114030FF2586230E04C
:101680007268716A53050DD519FB00F0251806F133
:1016900014030FF208621621284602F057FF20219A
:1016A00029542DE0D20511D40B68DFF890C01A68D8
:1016B000234B94449C4509D2009219FB00F0251855
:1016C00006F114030FF2E4520BE000BF19FB00F027
:1016D0002518C8680FF2E452019006F114038968D6
:1016E00000911621284602F031FF2021295407E0FD
:1016F0000FF29052162111FB00F0204402F026FF59
:1017000008F101005FFA80F802988045FFF451AFBC
:101710003A69F968521A02FB09F2A0183E22827552
:1017200004B0BDEC048B01B0BDE8F08FCDCCCCBDD6
:10173000FF3F1CC6CECCCC3D00401C463F420F00B4
:101740007F841E009A9999999999B93F2DE9F04C97
:1017500081B00E462DED028B31684FF48173CA1AA9
:101760001DD0521E3DD0FE3A0BD0521E17D0521E35
:1017700037D0FE3A00F07282521E10D0521E30D086
:1017800055E0006801684A6ADFF8E01410680860F4
:1017900000223260BDEC028B01B0BDE8F08C016923
:1017A00009B1491E01610169C268914280F0568207
:1017B000C268521EC26091423EBF521EC260914238
:1017C0003EBF521EC260914280F04882521E91423A
:1017D000C260EDD300223260BDEC028B01B0BDE8E7
:1017E000F08C82680169521E91423CBF491C016124
:1017F00001690629C0F03282C2688B1F9A423EBF3F
:10180000521CC2609A423EBF521CC2609A4280F093
:101810002582521CC2609A423CBF521CC260EBD36C
:1018200000223260BDEC028B01B0BDE8F08C026892
:10183000006952F820502A78052A00F2E281DFE898
:1018400012F0DE0125012600E0011700060040F23B
:101850000110814240F0D581696ADFF810240868E0
:10186000106000233360BDEC028B01B0BDE8F08C4A
:1018700040F20110814240F0C481696A08688047E3
:1018800000223260BDEC028B01B0BDE8F08C40F26A
:101890000113686AC91A00F0B280C91E5DD0491EE2
:1018A00008D0FF3959D0491E04D0FF3955D0491E00
:1018B00040F0A78129794A0700F1A181016800223F
:1018C00091ED000ADFED550AB2EE041ADFED541A6D
:1018D0009FED542ADFED542A03E000BF20EE010AF9
:1018E000521E134603F10904132CC26080F08E814E
:1018F000B5EE400AF1EE10FA04DDB4EE620AF1EE44
:1019000010FAEBD4B4EE420AF1EE10FA10DAB5EEAA
:10191000400AF1EE10FA05D5B4EE610AF1EE10FAC4
:10192000BFF6DCAFB4EE600AF1EE10FA40F16E8162
:10193000B2EE043A80EE030A521CD2E720EE010A0E
:101940005B1E002BFADC42BFF2EE040A80EE200A96
:101950005B1CF6D481ED000A51E129794A0700F1B8
:101960004E8101680022D1ED002A9FED2C0AF2EE93
:10197000040A9FED2B1ADFED2B1A9FED2B2A02E0B4
:1019800062EEA02A521E134603F10904132CC26012
:1019900080F04781F5EE402AF1EE10FA04DDF4EE16
:1019A000422AF1EE10FAEBD4F4EE612AF1EE10FACD
:1019B00010DAF5EE402AF1EE10FA05D5F4EE412AE0
:1019C000F1EE10FABFF6DCAFF4EE402AF1EE10FAB9
:1019D00040F12781B2EE043AC2EE832A521CD2E7CC
:1019E00020EE200A5B1E002BFADC42BFB2EE041A86
:1019F00080EE010A5B1CF6D481ED000AFFE001686D
:101A0000D1ED002A00219FED050AF2EE040A9FEDB8
:101A1000041ADFED041A9FED042A0BE0003C1CC6FB
:101A2000FFBF79C4013C1C4600C0794462EEA02A85
:101A3000B1F1010101F10902132AC16080F0FC80BB
:101A4000F5EE402AF1EE10FA04DDF4EE422AF1EE52
:101A500010FAEBD4F4EE612AF1EE10FA10DAF5EE9A
:101A6000402AF1EE10FA05D5F4EE412AF1EE10FA13
:101A7000BFF6DCAFF4EE402AF1EE10FA40F1DC8064
:101A8000B2EE043AC2EE832A491CD3E740F20112B7
:101A9000686A891A00F09380C91E51D0491E08D087
:101AA000FF394DD0491E04D0FF3949D0491E40F0BE
:101AB000A88029794A0700F1A2800768396801F1F6
:101AC0000902132A02D2491C396098E04FF0000B3A
:101AD0009FED688B694D42F210748246CAF80CB0D3
:101AE000CAF808100846DAF80C2002F10903132B93
:101AF00080F0A980A04203DAB0EB050F80F2A3804A
:101B000002F004FC02460B4651EC180B02F01CFCE0
:101B100002F0F0FC01460BF1010BDFE700EB800166
:101B200048007F1E002FF9DC40F1948002F0EEFBAC
:101B300053EC182B02F008FC02F0DCFC7F1CF1E7F0
:101B400029794A075BD40468216801F10902132A44
:101B500002D2491E216052E000279FED468B42F2DF
:101B600010758346CBF80C70CBF808100846DBF8EC
:101B70000C2002F10903132B69D2A84202DA3F4973
:101B8000884264DA02F0C2FB53EC182B02F0DCFB53
:101B900002F0B0FC01467F1CE4E700BF00EB8001CF
:101BA00048007F1E002FF9DC54D502F0AFFB53EC48
:101BB000182B02F0C9FB02F09DFC7F1CF2E70168C4
:101BC000096800249FED2B8B0746FC60B960F8681C
:101BD0000930132840D2084642F21072904203DACC
:101BE000264B984280F2388002F090FB53EC182B81
:101BF00002F0AAFB02F07EFC0146641CE5E700202F
:101C00003060BDEC028B01B0BDE8F08CBDEEC00AC7
:101C100010EE102A8260643200EE102AB8EEC00A7C
:101C20008FE6BDEEE20A10EE102A8260643A01EE01
:101C3000102AB8EEC10AD6E6BDEEE20A104980EDE0
:101C4000020A0D60DBE73C46643017466AE76438F9
:101C50001746A7E72060D2E709490D6000223260ED
:101C6000BDEC028B01B0BDE8F08C000058010020F3
:101C7000A80000209A9999999999B93FF1D8FFFF46
:101C80005C010020202D202D202D202D202D202D09
:101C9000202D202D202D202D2000000020252D314D
:101CA000362E31367320202D3E00000020252D31A8
:101CB000322E31327320252B2D37640020252D3113
:101CC000322E31327320252B342E3464252B312EC5
:101CD0003164000020252D31322E31327320252B26
:101CE0002D37660020626F6F6C2054797065202D4F
:101CF000202D202D202D2000202F2F252D31362E78
:101D000031367300205B25735D0000004261636B18
:101D1000000000002323252D31322E3132732A2575
:101D2000322E32642F25322E326400006E4802F0CB
:101D3000C3BC6E4802F0C0BC6D4802F0BDBC6D482B
:101D400002F0BABC6C4802F0B7BC30B5664D6A68A8
:101D5000296881B0284602F092FC0FF20114214656
:101D60002846C161C0466A6A296A05F1200002F06E
:101D700086FC214605F12000C161C0466A6C296CD1
:101D800005F1400002F07BFC214605F14000C161F5
:101D9000C0466A6E296E05F1600002F070FC2146B3
:101DA00005F16000C161C046D5F88420D5F88010E7
:101DB00005F1800002F063FC214605F18000C1615D
:101DC000C046286802F054FC69684C4B002202F0BF
:101DD00051FD286A02F04CFC696A494B002202F06E
:101DE00049FD286C02F044FC696C464B002202F06D
:101DF00041FD286E02F03CFC696E434B002202F06C
:101E000039FDD5F8800002F033FCD5F884103F4B43
:101E1000002202F02FFD01230FF2110200210A20FF
:101E200002F03BFEC5F8A40001B030BD10B52E4C49
:101E3000204602F09DFC04F1200002F099FC04F120
:101E4000400002F095FC04F1600002F091FC04F106
:101E50008000BDE8104002F08BBC0000224988429F
:101E600004BF0122C1F8A02001F12003984204BF61
:101E70000222C1F8A02001F14003984204BF0322CE
:101E8000C1F8A02001F16003984204BF0422C1F808
:101E9000A02001F18003984204BF0522C1F8A020D0
:101EA000007E012804D0032809D005280CD011E0B9
:101EB000D1F8A02042F48072C1F8A0200AE0D1F845
:101EC000A00040F4007003E0D1F8A00040F440709E
:101ED000C1F8A0000E480F4A016841F400210160DA
:101EE0004FF4000010607047000000202000002028
:101EF0004000002060000020800000202D1D000018
:101F0000331D0000391D00003F1D0000451D00006D
:101F10006C01002004E200E062F30F2262F31F4232
:101F200000B500BF130096469446103928BFA0E8BC
:101F30000C50FAD85FEA417C28BF0CC048BF40F87B
:101F4000042BC90728BF20F8022B48BF00F8012B3B
:101F500000BDFEE7F0B401460026DFF818284FF474
:101F600080434FF480544FF400455560A6F1500073
:101F7000546007064CBF13605360146054604706FA
:101F80004CBF136053601460546087064CBF1360ED
:101F9000536014605460C7064CBF136053601460F4
:101FA000546007074CBF13605360146054604707C8
:101FB0004CBF136053601460546087074CBF1360BC
:101FC00053601460C0075460000E14BF1360536068
:101FD00014605460556054605360146054605360E2
:101FE0001460546053601460546053601460546013
:101FF0005360146054605360146054605360146004
:1020000054601360146054605560546053601460F1
:1020100054605360146054605360146054601360E3
:1020200014605460536014605460536014605460D2
:1020300053601460546053601460546080201560D5
:1020400054600F064CBF13605360146054604F0619
:102050004CBF13605360146054608F064CBF136014
:10206000536014605460CF064CBF1360536014601B
:1020700054600F074CBF13605360146054604F07E7
:102080004CBF13605360146054608F074CBF1360E3
:1020900053601460CF0754603F0E14BF1360536049
:1020A0001460401E5460CAD1761CF0B20828FFF6B6
:1020B0005CAFF0BC7047F0B5DFF89C48DFF89C5887
:1020C00081B005F108020C21204602F06BFD05F1FC
:1020D0000A020E21204602F065FD05F10C020D21D9
:1020E000204602F05FFD05F10E020F21204602F0AE
:1020F00059FDDFF86C08298801804FF400466A8892
:1021000002814FF48047A9888180EA8882814FF458
:10211000805565604FF40050A0606060A660A560C7
:1021200067606560A560A7606560A56067606560C1
:10213000A560A7606560A56067606560A560676071
:102140006560A56067606560A560A7606560A56063
:10215000A660A560A7606560A560A7606560A560D2
:10216000A7606560A560A7606560A560A760656001
:10217000A560A7606560A560A7606560A560A760B1
:102180006560A560A660A560A7606560A560A760A2
:102190006560A560A7606560A56067606560A56013
:1021A000A7606560A560A7606560A560A7606560C1
:1021B000A560A7606560A560A660A560A760656072
:1021C000A56067606560A560A7606560A560A760A1
:1021D0006560A560A7606560A560A7606560A56093
:1021E000A7606560A560A7606560A560A660A56042
:1021F00067606560A560A7606560A560A7606560B1
:10220000A560A7606560A560A7606560A560A76020
:102210006560A560A7606560A56067606560A56092
:10222000A660A56067606560A56067606560A56081
:10223000A7606560A560A7606560A5606760656070
:10224000A56067606560A56067606560A5606760A0
:102250006560A560A660A56067606560A560A76011
:102260006560A56067606560A560A7606560A56042
:10227000A7606560A560A7606560A560A7606560F0
:10228000A56067606560A560A660A5606760656021
:10229000A56067606560A560A7606560A560A760D0
:1022A0006560A56067606560A560A7606560A56002
:1022B000A7606560A560A7606560A560A660A56071
:1022C00067606560A560A7606560A5606760656020
:1022D000A560A7606560A560A7606560A560676090
:1022E0006560A56067606560A560A7606560A560C2
:1022F000A660A56067606560A560A7606560A56071
:1023000067606560A560A7606560A56067606560DF
:10231000A560A7606560A560A7606560A560A7600F
:102320006560A560A660A560A7606560A560A76000
:102330006560A56067606560A56067606560A560B1
:1023400067606560A56067606560A56067606560DF
:10235000A56067606560A560A660A5606760656050
:10236000A56067606560A560A7606560A56067603F
:102370006560A560A7606560A560A7606560A560F1
:1023800067606560A56067606560A560A660A56020
:10239000A7606560A560A7606560A560A7606560CF
:1023A000A560A7606560A560A7606560A560A7607F
:1023B0006560A560A7606560A560A7606560A560B1
:1023C000A660A56067606560A56067606560A560E0
:1023D000A7606560A56067606560A560A7606560CF
:1023E000A56067606560A560A7606560A5606760BF
:1023F0006560A560A660A56067606560A560A76070
:102400006560A560A7606560A560A7606560A56060
:10241000A7606560A560A7606560A560A76065604E
:10242000A560A7606560A560A660A560676065603F
:10243000A56067606560A560A7606560A56067606E
:102440006560A56067606560A560A7606560A56060
:10245000A7606560A56067606560A560A660A5600F
:1024600067606560A56067606560A56067606560BE
:10247000A56067606560A560A7606560A560A760EE
:102480006560A560A7606560A56067606560A56020
:10249000A660A56067606560A56067606560A5600F
:1024A000A7606560A56067606560A560676065603E
:1024B000A560A7606560A56067606560A560A760AE
:1024C0006560A560A660A560A7606560A560A7605F
:1024D0006560A560A7606560A56067606560A560D0
:1024E000A7606560A560A7606560A56067606560BE
:1024F000A560A7606560A560A660A560676065606F
:10250000A56067606560A560A7606560A56067609D
:102510006560A56067606560A560A7606560A5608F
:1025200067606560A56067606560A560A660A5607E
:10253000A7606560A56067606560A560A76065606D
:10254000A560A7606560A560A7606560A560A760DD
:102550006560A560A7606560A560A7606560A5600F
:10256000A660A560A7606560A560A7606560A560BE
:1025700067606560A560A7606560A560A76065602D
:10258000A560A7606560A560A7606560A560A7609D
:102590006560A560A660A560A7606560A560A7608E
:1025A0006560A560A7606560A560A7606560A560BF
:1025B000A7606560A560A7606560A56067606560ED
:1025C000A560A7606560A560A660A560676065609E
:1025D000A560A7606560A560A7606560A560A7604D
:1025E0006560A56067606560A56067606560A560FF
:1025F000A7606560A56067606560A560A660A5606E
:10260000A7606560A560A7606560A560A76065605C
:10261000A56067606560A560A7606560A56067608C
:102620006560A560A7606560A560A7606560A5603E
:10263000A660A56067606560A560A7606560A5602D
:1026400067606560A560A7606560A560A76065605C
:10265000A56067606560A560A7606560A560A7600C
:102660006560A560A660A56067606560A560A760FD
:102670006560A56067606560A560A7606560A5602E
:10268000A7606560A56067606560A560676065605C
:10269000A560A7606560A560A660A56067606560CD
:1026A000A560A7606560A56067606560A560A760BC
:1026B0006560A56067606560A56067606560A5602E
:1026C00067606560A56067606560A5600020FFF7D2
:1026D00041FCA660A56067606560A560A760656055
:1026E000A56067606560A56067606560A560A760BC
:1026F0006560A560A7606560A560A7606560A5606E
:10270000A7606560A560A660A560A7606560A5601C
:10271000A7606560A560A7606560A560676065608B
:10272000A560A7606560A560A7606560A560A760FB
:102730006560A560A7606560A560A660A560A760EC
:102740006560A560A7606560A560A7606560A5601D
:10275000A7606560A560A7606560A560A76065600B
:10276000A560A7606560A56067606560A56001B051
:10277000F0BD0000C4F00F402DE9F04796464FF041
:102780000008DFF8E021DFF8E0314FF480444FF437
:1027900080554FF4004982468C46C2E01D605D6062
:1027A0004E064CBF1C605C601D605D608E064CBFB9
:1027B0001C605C601D605D60CE064CBF1C605C6090
:1027C0001D605D600E074CBF1C605C601D605D603D
:1027D0004E074CBF1C605C601D605D608E074CBF87
:1027E0001C605C601D60C9075D60090E14BF1C6041
:1027F0005C601D605D60C3F804905D605C601D609E
:102800005D605C601D605D605C601D604FEA0A6138
:102810005D60090F1C6041F010011D605D600E07D6
:102820004CBF1C605C601D605D604E074CBF1C604F
:102830005C601D605D608E074CBF1C605C601D604D
:10284000C9075D60090E14BF1C605C601D605D609F
:10285000C3F804905D605C601D605D605C601D603D
:102860005D605C601D605D605C604FEA0A111D6028
:1028700041F010015D600E064CBF1C605C601D6085
:102880005D604E064CBF1C605C601D605D6089062B
:102890004CBF1C605C601D605D601C6000EB400113
:1028A0001D6002EB41065D6006213078C3F80090A0
:1028B0005D6007064CBF1C605C601D605D60470684
:1028C0004CBF1C605C601D605D6087064CBF1C6077
:1028D0005C601D605D60C7064CBF1C605C601D6075
:1028E0005D6007074CBF1C605C601D605D60470752
:1028F0004CBF1C605C601D605D6087074CBF1C6046
:102900005C601D60C0075D60000E0CBF5C601C60F9
:10291000761C1D60491E5D60C7D10AF1060A08F1E8
:1029200001085FFA88F01EF8000098B15FFA8AF19A
:10293000C3F8049020387F29A4BF4FF0000A0CF19F
:10294000010CACF150015D600E06C0B24CBF1C60C2
:102950005C6023E7BDE8F087C0F00F404003002033
:1029600030C0044084EA0000C4F00F4000F5E0707D
:102970000268914203D343681A44914202D38068AB
:102980000028F5D17047DFF86C17086890B94FF44C
:10299000805048604FF480324FF0FF30C8600861CB
:1029A0000420DFF854378A604861C3F8BC01DFF8BF
:1029B0004C0708600120704701F1080313F0070F6E
:1029C0000EBF0023C3F1080303F007031944D21A12
:1029D0008161C26042F001034B60091D4FF0280C79
:1029E00041F802C0DFF80C271369C36170472DE975
:1029F000FC4B074601F1080010F0070F0FBF894696
:102A0000C0F1080000F0070001EB000902F1080125
:102A100011F0070F06D002F10800C0F1080000F025
:102A2000070002441546A5EB090009EB0306A0EBDD
:102A3000030B43F00303C9F80430AE4228BF02F091
:102A4000C5F82879C10758BF02F0C0F8BBF1100FD4
:102A500038BF02F0BBF8B869854208D1F9688B44E9
:102A6000C7F80CB0BE614BF00100706051E17869AD
:102A700085420AD1B9688B44C7F808B07E614BF033
:102A80000100706046F80BB043E1686800F0030194
:102A9000012940F0AC80C008C0000190C0081F2888
:102AA00039D8AC68D5F80C800090454508BF02F0D5
:102AB0008DF8A54208BF02F089F868680099C0083F
:102AC000C000B0EBC10F18BF02F080F8009907F109
:102AD000280000EBC100844206D039698C42C0F066
:102AE0008180E268AA427DD1A04506D1009839686C
:102AF000012383409943396076E0804506D03969E7
:102B000088456FD3D8F80800A8426BD1C4F80C8070
:102B1000C8F8084068E0EC68D5F81880AC420CD0E2
:102B2000A8683969884223D3C268AA4204BFA16851
:102B3000A9421DD1C460A0601CE005F114010C681D
:102B400034B905F110010C68A4B101E011460C681C
:102B500004F114021068002802BF04F1100210688A
:102B60000028F3D13869814202D300220A6001E0D3
:102B700002F02CF8B8F1000F36D0E96907F598702B
:102B800000EB81000268954208D10460A4B9E869AD
:102B90007968012282409143796025E03869804557
:102BA00008D3D8F81010A94214BFC8F81440C8F8C8
:102BB000104001E002F00AF8B4B139698C4211D337
:102BC000C4F81880286928B1884226BF2061846132
:102BD00001F0FCFF686938B13969884202D360614D
:102BE000846101E001F0F2FF01996D188B4469687E
:102BF0004908490069604BF0010070604FEADB044E
:102C000046F80BB01F2C23D807F1280000EBC408AE
:102C10004546BBF1100F38BF01F0D8FF386820FAE5
:102C200004F1CA0705D4012101FA04F404433C600D
:102C300007E0D8F80800396988422CBF054601F042
:102C4000C5FFC8F80860EE60B560C6F80C8060E0AB
:102C50005FEA1B2008BF002123D0B0F5803F28BFCA
:102C60001F211ED2A0F58072120C02F008029040C3
:102C7000A0F58051090C01F004018840A0F58043C3
:102C80001B0CC2F10E0203F00203521AD21A984032
:102C900002EBD032D01D2BFA00F101F0010101EB63
:102CA0004201F161002307F59872736102EB810024
:102CB00033617A6822FA01F3DC0707D4012303FAAF
:102CC00001F1114379600660B0611DE002681F29BF
:102CD0001DBF4908C1F119010BFA01F1594600E085
:102CE00002465068C008C000584516D002F11003D3
:102CF000C80F03EB8003490018680028F0D1386939
:102D0000834204D31E60B261F660B66001E001F058
:102D10005DFF09F10800BDE8F68B396990688A42C9
:102D200028BF8842F3D3C6609660B060F26000208E
:102D3000B061EEE72DE9FE4F04468B46A5692E46AD
:102D4000904699463146FFF711FE0268416802EB52
:102D5000010AAAF1270111F007000EBF0021C1F1FD
:102D6000080101F007010AEB0100A0F12F0706F1AD
:102D700010018F4238BF374607F118020021019237
:102D80000091A8F1280259462046FFF715FE07F1E9
:102D9000080010F0070F18BF01F018FF1B20786023
:102DA00007F1080104F5E07090E80C5081E80C5040
:102DB000C0F800B0C0F80480C0F80C908160072211
:102DC0000198009900E0001D491C00F108035345DB
:102DD0004260F8D30129D8BF01F0F8FEB74200F0F5
:102DE0009580BF1B301D321DC15949084900D15182
:102DF00047F0010070604FEAD70BF751BBF11F0F8E
:102E000021D804EBCB0000F12805A846102F38BFCD
:102E100001F0DCFE206820FA0BF1CA0705D401217D
:102E200001FA0BF10843206006E0A8682169884296
:102E30002CBF804601F0CAFEAE60C8F80C60C6F830
:102E40000880F5606FE0380A08BF002123D0B0F594
:102E5000803F28BF1F211ED2A0F58072120C02F005
:102E600008029040A0F58051090C01F0040188404F
:102E7000A0F580431B0CC2F10E0203F00203521AAC
:102E8000D21A984002EBD032D01D27FA00F101F09F
:102E9000010101EB420104EB8102002302F598706D
:102EA000F16173613361626822FA01F3DB0707D4D1
:102EB000012303FA01F1114361600660B0611DE076
:102EC00002681F291DBF4908C1F1190107FA01F164
:102ED000394600E002465068C008C000B84216D02B
:102EE00002F11003C80F03EB8003490018680028A3
:102EF000F0D12069834204D31E60B261F660B560F0
:102F000011E003B0BDE8F04F01F060BE0BE02169B5
:102F100090688A4228BF8842F3D3C6609560B0604B
:102F2000F2600020B06103B0BDE8F08F2DE9F04100
:102F3000704F05463868884608B9FFF724FDB96820
:102F400001EB08002F30491E20EA010188457DD29F
:102F500005F5D876B06828B1326889188A4275D2EA
:102F6000884273D301F052FE01001CBF0C6811F1BE
:102F7000010F6BD03068201805F5D87230605368A7
:102F8000984238BF18467060A86960BB286908B1CC
:102F9000814200D22961316174610020F0614FF0FB
:102FA000FF303A686A62286205F128020020D26088
:102FB000926002F1080757611761801C10322028C7
:102FC000F5D34D48854208BFA4F1280228D055F812
:102FD000040CC00805EBC002A2F108000A19121A7D
:102FE000283A01461CE005F5E070024600E09268D0
:102FF0007AB3136857681F44B942F8D1137B1F078F
:1030000027D4AB691768BB4223D3D2F804C0674406
:10301000BB421ED2A444C2F804C0E868A9692218C1
:103020002846FFF7C9FC1FE08068C0B103689342DF
:10303000FAD1027B130712D4026801604368E418D6
:10304000446043462846BDE8F041D0E40020BDE896
:10305000F0812A69914238BF29610A19E5E7002306
:1030600022462846FFF766FEE8688045EED2A0EBD0
:103070000800A969E86001EB0802AA6140F00100BC
:10308000506048F00300486001F10800BDE8F0819D
:1030900030B4184B1A6882B94FF480525A604FF41A
:1030A00080344FF0FF32DA601A610422124D9C60C6
:1030B0005A61C5F8BC21114A1A6011F1400F17D2AC
:1030C0008269AAB1C368283199420BD200F5E07138
:1030D0000C68A24203D34D682C44A24202D38968F3
:1030E0000029F5D1C16999423CBF4FF0FF32C2615E
:1030F00000F0C8BE4C080020640800206859883CD5
:103100002DE9F84F00258946090AC9F1000B08BFCF
:10311000002323D0B1F5803F28BF1F231ED2A1F585
:103120008072120C02F008029140A1F580531B0C32
:1031300003F004039940A1F58044240CC2F10E026F
:1031400004F00204D21A121BA14002EBD132D11DAD
:1031500029FA01F303F0010303EB4203074607F5E5
:10316000987858F8230030B31F2B0FBF4C465C08EB
:10317000C4F1190409FA04F4AC46594600E06400AD
:103180004268D208D200A2EB09028A4203D211009F
:10319000054600F06981426910304FEAD47B50F84F
:1031A0002B00002A1CBF824294460028E7D18B46A0
:1031B0006046B0BBBDBB012202FA03F35B0058427C
:1031C000796803430B4000F04E81584203405B1E78
:1031D000180B00F01000C340590901F00801CB4062
:1031E0009A0802F00402D3405C0804F002040818B4
:1031F000E3401018C3F3400620183044F3401B1876
:1032000058F823000DE008464168C908C900A1EB41
:10321000090159453CBF8B46054601690029F2D199
:1032200040690028F0D1002D00F01D81B868A0EBA6
:103230000900834580F0178139698D42C0F0118102
:103240006868C008C00009EB0B01884218BF01F094
:10325000BDFC05EB0906B54280F00381EC68D5F8AA
:1032600018A0AC420CD0A8683969884223D3C26840
:10327000AA4204BFA168A9421DD1C460A0601CE09D
:1032800005F114010C6834B905F110010C68A4B102
:1032900001E011460C6804F114021068002802BF16
:1032A00004F1100210680028F3D13869814202D37A
:1032B00000220A6001E001F089FCBAF1000F36D06B
:1032C000E86908EB800001688D4209D104602000A4
:1032D00014D1E8697968012282409143796026E03F
:1032E0003869824508D3DAF81010A94214BFCAF829
:1032F0001440CAF8104001E001F068FCBCB1386924
:10330000844212D3C4F818A0286930B139698842C0
:1033100026BF2061846101F059FC686938B13969C0
:10332000884202D36061846101E001F04FFCBBF18F
:10333000100F0CD2D94449F00300291D6860281DE4
:1033400051F8092042F0010240F8092088E049F0D4
:10335000030068604BF0010070604FEADB0046F844
:103360000BB01F281DD807EBC00101F128043968F4
:1033700021FA00F2D307A34605D4012202FA00F095
:103380000843386006E0A068396988422CBF83464C
:1033900001F01CFCA660CBF80C60C6F808B0F46025
:1033A0005EE05FEA1B2008BF002123D0B0F5803F1C
:1033B00028BF1F211ED2A0F58072120C02F0080255
:1033C0009040A0F58051090C01F004018840A0F55F
:1033D00080431B0CC2F10E0203F00203521AD21AF0
:1033E000984002EBD032D01D2BFA00F101F0010120
:1033F00001EB4201F16100227261326108EB810050
:103400007A6822FA01F4E30707D4012404FA01F1EF
:10341000114379600660B0611DE002681F291DBF7D
:103420004908C1F119010BFA01F1594600E00246C1
:103430005068C008C000584518D002F11003C80FEA
:1034400003EB8003490018680028F0D138698342F3
:1034500004D31E60B261F660B66001E001F0B6FB15
:1034600014E101F0B3FB0EE18B46A2E639699068E6
:103470008A4228BF8842F1D3C6609660B060F2608D
:103480000020B061ECE72DE9F84F064688467168E8
:1034900048420140491E080B00F01000C1404A0993
:1034A00002F00802D1408B0803F00403D9404D0814
:1034B00005F002051018E9401818C1F34004281857
:1034C00006F5987A2044E14009185AF82110486816
:1034D000C008C0000D46A0EB080909E00146486895
:1034E000C008C000A0EB080048453CBF81460D461F
:1034F00008690028F2D149690029F0D13069854274
:10350000C0F0BF806968C90808EB090BC9005945BC
:1035100018BF01F05BFB05EB08008542009080F0CE
:10352000B080EF68AC69AF420CD0A86831698842BE
:1035300023D3C268AA4204BFB968A9421DD1C7609B
:10354000B8601CE005F114010F6837B905F11001EE
:103550000F68A7B101E011460F6807F11402106867
:10356000002802BF07F1100210680028F3D130696B
:10357000814202D300220A6001E001F027FB002C07
:1035800031D0E8690AEB800001688D4208D10760FC
:103590008FB9E8697168012282409143716022E02D
:1035A0003069844205D32169A94214BF676127614C
:1035B00001E001F00BFBB7B13069874211D3BC6168
:1035C000286930B13169884226BF3861876101F0CE
:1035D000FDFA686938B13169884202D37861876140
:1035E00001E001F0F3FAB9F1100F0BD24BF0030038
:1035F000291D6860281D51F80B2042F0010240F897
:103600000B203DE048F003012A1D696049F00100EC
:1036100042F80800009941F80990D6F808804FEA6E
:10362000D80BBBF1200F28BF01F0D0FAB8F1000F82
:1036300022D006EBCB00776900F12804A246B8F14E
:10364000100F38BF01F0C2FA306820FA0BF1CA0738
:1036500005D4012101FA0BF10843306006E0A068AF
:10366000316988422CBF824601F0B0FAA760CAF8DF
:103670000C70C7F808A0FC60C6F80890009870614C
:1036800004E001F0A3FA0020BDE8F28F05F1080084
:10369000BDE8F28F2DE9FE4F0546AFF30080F52D12
:1036A000DFF8DC6780F004810B2D31BF10250B356E
:1036B000ED08ED003068EC08E04010F0030F46D054
:1036C000C04300F00100041906F1280000EBC40813
:1036D000E700D8F808506868C008C000B84218BFB2
:1036E00001F074FAD5F80890454508BF01F06EFA6C
:1036F0004D4508BF01F06AFA6868C008C000B842CA
:1037000018BF01F063FAC84507D13068012101FAFA
:1037100004F420EA040434600DE03069814508D3E4
:10372000D9F80C10A94204D1C8F80890C9F80C8047
:1037300001E001F04BFA47F00300291D6860281DE5
:10374000CA5942F00102C25105F10804F8E0B1681B
:10375000A94280F0BE80002800F0A1804FF001084F
:1037600008FA04F1490000FA04F4484201430C400D
:1037700060420440641E200B00F01000C440610948
:1037800001F00801CC40A20802F00402D440630812
:1037900003F002030818DC401018C4F3400718189F
:1037A0003818FC40241806F1280000EBC40AE70092
:1037B000DAF80890D9F80400C008C000B84218BF71
:1037C00001F004FAD9F808B0D14508BF01F0FEF9BC
:1037D000D94508BF01F0FAF9D9F80400C008C000C3
:1037E000B84218BF01F0F2F9DA4506D1306808FA9C
:1037F00004F420EA040434600DE031698B4508D3F9
:10380000DBF80C00484504D1CAF808B0CBF80CA08E
:1038100001E001F0DBF97F1B45F0030009F1040230
:10382000C9F8040047F00101515109EB050201926A
:10383000D751B4684FEAD40ABAF1200F28BF01F07B
:10384000C5F934B3CDF800A006F12800756900EB86
:10385000CA0AD346102C38BF01F0B8F93168009875
:1038600021FA00F2D30704D408FA00F008433060CC
:1038700007E0DAF80800316988422CBF834601F07E
:10388000A5F9CAF80850CBF80C50C5F808B0C5F82F
:103890000CA0B76009F108040198706150E07068ED
:1038A000C0B329463046FFF7EEFD040011D047E0D3
:1038B00015F1400F28BF4FF0FF350AD20B35ED0848
:1038C0007068ED0028B129463046FFF719FC040066
:1038D00036D1B068A8421DD3411B726910290AD3A2
:1038E00050197061B16041F001034360415045F0EF
:1038F000030555600BE00021B1607161131D40F0BC
:1039000003015160111D1C5844F001040C5002F1D8
:10391000080415E0F06885420DD2401BB169F060E3
:103920004A19B26140F00100506045F003054D6056
:1039300001F1080404E029463046FFF7F7FA04468F
:10394000AFF300802046FFF7EEBA002800D17047A1
:103950002DE9F047A0F10805AFF30080DFF82065FE
:1039600031698D42C0F05982686800F00302012A73
:1039700000F05382C2084FEAC209C20705EB0908EA
:1039800039D42C6810F0030F00F0498260420544DE
:103990008D42A144C0F041827069854200F0C6802A
:1039A000E408202C5ED2D5F80CA0AF68554508BFBE
:1039B00001F00CF9BD4208BF01F008F96868C008C1
:1039C000C000B0EBC40F18BF01F000F906F12800E9
:1039D00000EBC400874205D031698F423FD3FA68BB
:1039E000AA423CD1BA452CD13068012101FA04F435
:1039F00020EA04043460454580F00F82D8F8044082
:103A0000E00740F10A82A10700F16881B0698045B2
:103A100040F09F80F168B5618944C6F80C9049F088
:103A20000100686071698D4202D100207061B06050
:103A3000F069484580F0F38100213046FFF728FB0C
:103A4000EDE1824506D03069824508D3DAF80810E6
:103A5000A94204D1C7F80CA0CAF80870CBE701F05E
:103A6000B5F8C8E7EC68AF69AC420BD0A8688842EB
:103A700022D3C168A94204BFA268AA421CD1C46073
:103A8000A0601BE005F11402146834B905F11002BE
:103A900014689CB101E01A46146804F11403186814
:103AA000002802BF04F1100318680028F3D18A42ED
:103AB00002D30021116001E001F088F8002F9AD0B4
:103AC000E96906F5987000EB81000268954209D11A
:103AD0000460200011D1E86971680122824091439D
:103AE000716088E73069874205D33969A94214BFFC
:103AF0007C613C6101E001F069F8002C3FF47BAF90
:103B000031698C42ABD3A761286928B1884226BFAE
:103B10002061846101F05AF8686900283FF46BAFB6
:103B2000316988429BD36061846164E798F804003E
:103B300000F0030003287FF45EAFC6F8089049F058
:103B40000101D8F8040040084000C8F8040069608A
:103B50000AE0706980450AD1B16875618944C6F888
:103B6000089049F00100686045F8099057E1E408C1
:103B7000E400A144E408202C3AD2D8F80CA0D8F8EC
:103B80000870D04508BF01F021F8B84508BF01F022
:103B90001DF8D8F80400C008C000B0EBC40F18BF6F
:103BA00001F014F806F1280000EBC400874207D0AA
:103BB00031698F42C0F08580FA68424540F08180CB
:103BC000BA4507D13068012101FA04F420EA04045F
:103BD000346078E0824506D03069824571D3DAF8E6
:103BE000081041456DD1C7F80CA0CAF808706AE00A
:103BF000D8F80C40D8F8187044450DD0D8F8080013
:103C00003169884223D3C268424504BFA168414557
:103C10001DD1C460A0601CE008F114010C6834B927
:103C200008F110010C68A4B101E011460C6804F120
:103C300014021068002802BF04F110021068002866
:103C4000F3D13069814202D300220A6001E000F022
:103C5000BDFF002F37D0D8F81C1006F5987000EB88
:103C60008100026890450AD10460200012D1D8F882
:103C70001C007168012282409143716023E0306929
:103C8000874205D33969414514BF7C613C6101E03D
:103C900000F09CFFBCB131698C4212D3A761D8F807
:103CA000100028B1884226BF2061846100F08EFF99
:103CB000D8F8140038B13169884202D36061846158
:103CC00001E000F083FF49F00100686045F80990C9
:103CD00071698D420BD1C6F80890A0E064086400B9
:103CE000C8F8044049F00100686045F809904FEABF
:103CF000D907202F22D206F1280000EBC704A046E6
:103D0000B9F1100F38BF00F061FF306820FA07F1F9
:103D1000CA0705D4012101FA07F70743376006E017
:103D2000A068316988422CBF804600F04FFFA56033
:103D3000C8F80C50C5F80880EC6070E05FEA192004
:103D400008BF002123D0B0F5803F28BF1F211ED21D
:103D5000A0F58072120C02F008029040A0F580518C
:103D6000090C01F004018840A0F580431B0CC2F14E
:103D70000E0203F00203521AD21A984002EBD0321C
:103D8000D01D29FA00F101F0010101EB420106F515
:103D90009872002302EB8100E9616B612B6172680C
:103DA00022FA01F3DC0707D4012303FA01F11143DE
:103DB00071600560A8611DE002681F291DBF4908E8
:103DC000C1F1190109FA01F1494600E002465068C3
:103DD000C008C000484526D002F11003C80F03EB0D
:103DE0008003490018680028F0D13069834204D369
:103DF0001D60AA61ED60AD6001E000F0E7FE306A91
:103E0000401E30620BD1D6F8C80100E0806800285F
:103E1000FCD14FF0FF30306201E000F0D7FEAFF38D
:103E20000080BDE8F087316990688A4228BF8842E7
:103E3000E3D3C5609560A860EA600020A861DEE772
:103E400038B5002558B141EA0002120C01FB00F51B
:103E500012041EBFB5FBF0F088424FF0FF35284634
:103E6000FFF718FC04001CBF14F8040C10F0030F3B
:103E700003D02946204600F0DFFE204632BD000078
:103E80006408002030BC00207047000000F0BCB87F
:103E9000224A116831B1224B19685268B0FBF1F027
:103EA000904201D101207047002070472DE9F04178
:103EB0001A4D1B4F044628680E46904688B938684C
:103EC000B4FBF0F16960FFF7E5FB286048B10146FB
:103ED000686800F049F920B12868FFF736FD002036
:103EE0002860424638682B68B4FBF0F100FB1144AF
:103EF0001919304600F0A4FE0020BDE8F08110B58D
:103F0000064C2168606800F07BF908B1012010BD03
:103F10002068FFF71AFD0020206010BD700300200C
:103F2000D404002070B5DFF89C63DFF89C23DFF831
:103F30009C433260642106F1100000F0D5FE06F1CA
:103F400074000021C0E9001106F1100000F0D0FE5D
:103F500006F1740001F00AF8321D042106F1100088
:103F600000F0B8FF06F10802012106F1100000F090
:103F7000B1FF06F10C02002106F1100000F0AAFFCB
:103F80000FF2583001F02CF8B1680A46890A204631
:103F900001F026F8F1680A46890A04F1300001F0C0
:103FA0001FF8314606F1100000F08EFF054630681C
:103FB000DFF81C1388420AD0DFF81813884209D0B2
:103FC000DFF80413884209D10FF2283004E004F12D
:103FD000640001E004F1900001F002F887A000F015
:103FE000FFFF284670BD30B4B649CA684C6889687E
:103FF000B0FBF2F35D1C0C195543A4EB450400190A
:1040000030BC02FB13007047F0B51446AD4ADFF830
:10401000B8E2D36855680E469168B0FBF3F74D19C6
:10402000791C5943A5EB410511684519714581B0CB
:1040300003FB175518BF08462ED12018B0FBF3F02C
:10404000B84218BF642027D1002102F1740000F0AB
:104050009FFF00F0D9FFF4B114F0030000F00680D8
:1040600015F8011B06F8011B401EF9D1A40812D057
:10407000287806F8010B691CAB1C0A7806F8012B9E
:10408000E91C187806F8010B641E0A7806F8012B63
:1040900005F10405ECD1002001B0F0BDF0B5894E6A
:1040A0000C461546F2687768B168B0FBF2F3CF1999
:1040B000591C5143A7EB41073168DFF80CE2C719DF
:1040C000714585B002FB137718BF08461FD1281829
:1040D000B0FBF2F0984218BF642018D1012106F11C
:1040E000740000F055FF2B462246394606F11000B9
:1040F00000F072FE03A804A901220290019100922F
:1041000023462A46394606F1100000F0B1FE05B0FC
:10411000F0BD70B56B4CE168636801FB00F5B5FB61
:10412000F1F2A068561CC3184E43A3EB4603ED18EA
:1041300001FB12552068644A904214D1012104F118
:10414000740000F025FFE268634B294604F110007B
:1041500000F01CFEE268294604F11000BDE8704042
:10416000012300F05FBE70BDF0B50D46554A56689C
:104170009168D368DFF850E15843B0FBF3F78E192C
:10418000791C5943A6EB410611688619714581B027
:104190001C4603FB17662DD12018B0FBF3F0B84284
:1041A00018BF642126D1002102F1740000F0F0FE56
:1041B00000F02AFFECB114F0030005D016F8011B43
:1041C00005F8011B401EF9D1A40812D0307805F87B
:1041D000010B711CB31C0A7805F8012BF11C18782F
:1041E00005F8010B641E0A7805F8012B06F1040698
:1041F000ECD10021084601B0F0BD00000D0A00001E
:104200002DE9F0432F4E73688846F168044601FBA0
:1042100004F2B2FBF1F5B0686F1CC3184F43A3EB77
:104220004703D21801FB15253268274FBA4285B0E3
:1042300012D1012106F1740000F0AAFEF268264BAB
:10424000294606F1100000F0A1FDF268012329467D
:1042500006F1100000F0E6FD7568B068F1684C43A7
:10426000B4FBF1F2531C45194B433068A5EB4305F1
:104270006519B842894601FB12551FD14C44B4FB65
:10428000F1F0904218BF642018D1012106F17400AA
:1042900000F07EFE4B464246294606F1100000F033
:1042A0009BFD03A804A901220290019100924346BC
:1042B0004A46294606F1100000F0DAFD05B0BDE8D7
:1042C000F0830000C80400203CC33CC3C4EE0000DF
:1042D000A55AA55AA53CC35A6B66656B0D0A2050BA
:1042E000466C61736820496E666F726D6174696FA8
:1042F0006E3A20000D0A20466C61736820697320B5
:10430000554E53454355524521000000C11768B131
:104310004840401AB0FA80F29040D21CC907C2F55A
:10432000846241EA025202EBD02140057047826864
:10433000521C8260426832B10268531C03601170E3
:104340004168491E41607047B0B581EA030C0CF02A
:10435000004C40F2FF7515EA11541DBF15EA1357C2
:10436000AC42AF4239E0E41923EA455343F48013E9
:10437000C90241F0004141EA505EC7021100A7FBAB
:10438000020200284FF00000EEFB01204FF0000178
:10439000E3FB072118BF42F0010240180021494108
:1043A000E3FB0E01A4F580640F0302D252004041EA
:1043B000494154F101046CDD470872F1004250F1AB
:1043C000000051EB0451A1F580115CBF41EA0C01E2
:1043D000B0BD4CEA05510020B0BD05EA1357AC4210
:1043E00014BFAF4241E050EA410E1CBF52EA430EF7
:1043F00002E061460020B0BD24423C441BD15FEA8C
:10440000070EF6D0090302BF01460020AEF1140EDC
:10441000B1FA81F7AEEB070401FA07FE0C37C7F1DA
:10442000200100FA07F7C8404EEA000E23EA455380
:1044300043F48013A2E733F00043B3FA83F704BFD9
:10444000B2FA82FE77440B3FE41BB7F1200E2FBF78
:1044500002FA0EF3BB40C7F1200E22FA0EFE38BF5F
:1044600043EA0E03BA40641C82E750EA410E14BFCF
:1044700052EA430E6FF000014FF4001717EB430FA1
:104480008ABF194617EB410FB5E74CEA05510020EA
:10449000B0BDD4F10104B4F120070FDAC4F1200754
:1044A000520828BF42F0010210FA07F501FA07F797
:1044B000E1BF2A43E0403843E1400FE0352C98DC6F
:1044C000C7F1200452EA400220FA07F218BF42F076
:1044D000010231FA07F0A1400A43002172F10042C3
:1044E00050F1000051EB0C01B0BD0268531C036099
:1044F00011707047C1F30A5340F2FE329B1A14DD6B
:10450000D3F120034FEAE17208DDC90241EA5051BC
:1045100041F00040D84080185040704703F2E1302D
:1045200010B1D24382F00040704700207047B1F5CF
:10453000807F02D34FF0FF30704701700120704739
:104540000078401E8041C043C00F704708B438B5A2
:1045500085B009AC00250494039500290EBF019590
:104560000190491E0291009504AB01A907487844C7
:104570001A3000F059FD019901B10D70002858BFA3
:10458000039806B030BC5DF808FB00BFA3FDFFFF39
:10459000C0F3C75181B1FF2906D0C110400721F0F7
:1045A000E04101F16051704741020CBF40F4E0016D
:1045B0006FF000410020704700F0004100020AD077
:1045C000B0FA80FC00FA0CF001F16051A1EB0C5143
:1045D00001EBD0214005704701B58B071AD1830745
:1045E00024D1121F21D351F8043BA3F1013C2CEA42
:1045F000030C1CF0803C04BF40F8043BF1E79CFA3C
:104600008CFCBCFA8CF1C1F118018B40CB4040F816
:10461000043B13E0042A09D311F8013B521E00F8B1
:10462000013B5BB18B07F7D1D9E7121D5AB111F8E5
:10463000013B521E00F8013B03B1F8D111001CBF31
:10464000002201F095FC01BD04E010F8013B6BB1C4
:10465000491C521E52B10B7890F800C09C45F4D012
:1046600002D24FF0FF3070470120704700207047A2
:104670007049714A0818800952F82000704701609B
:1046800042600021C161026841681369CB40DB07C9
:10469000FBD5694B4FF00A0C80F808C065488218BA
:1046A000920953F8220050F8212022F4702242F49B
:1046B000202240F82120704770B50646307A09283C
:1046C00031D10A20307232685A485B498218920907
:1046D00051F82200716850F8212022F4702242F42F
:1046E000202240F8212000F0BEF9D6E90423841AE4
:1046F00061EB030500F0B7F9C6E90401B4F10A0063
:1047000065F1000100290BD8BE2809D2307E38B9E6
:1047100001213176F16951B33046BDE87040084758
:104720000020307670BD0A2821D100F09CF9D6E92E
:104730000423801A9941002901D8322817D309246B
:10474000347232683B483C498218920951F8220081
:10475000716850F8212022F4702242F4102240F8AF
:1047600021200020307600F07EF9C6E9040170BDFA
:1047700030B5044681B0216808696268D040C0073E
:1047800011D50A2323722B482B4C4118890954F860
:10479000210050F8221021F4702141F4202140F82A
:1047A000221001B030BD00F05EF9D4E90423801A74
:1047B000257A9941092D09D1FA3861F100010029C2
:1047C00035D8322833D20322227613E0227E032A00
:1047D00018BF052A2BD1002902D8B0F5967F03D344
:1047E0000020207601B030BD002901D864281ED3F6
:1047F0000520207600F037F9C4E904010A20207270
:1048000022680C480C498218920951F8220061680C
:1048100050F8212022F4702242F4202240F8212076
:10482000E16921B1204601B0BDE83040084701B040
:1048300030BD00000010F0BF9801002010B5754C8D
:104840000C21204601F0C3FB0C2104F1100001F003
:10485000BEFB0C2104F1200001F0B9FB0C2104F196
:10486000300001F0B4FB0C2104F1400001F0AFFB7B
:10487000002010BD2DE9F04114460D46664A012185
:10488000904284B0984601FA05F508BF614E13D0F6
:104890006249884208BF624E0ED06249884208BF12
:1048A000614E09D06149884208BF614E04D0614918
:1048B00088420CBF604E0026304601F0F0FB0746F0
:1048C00030464068C046874211D03968B8680A68E7
:1048D000AA42074602BF7968304601F0C8FBEFE7FD
:1048E000286841688C4228BFAD6808D20CE0CDF83A
:1048F00008800095019430460068C0460546304661
:104900004068C0468542EBD16A462946304601F0F0
:104910008DFB002004B0BDE8F08170B547483D4DE7
:104920000468046028460068C046064606E0306811
:10493000016821421CBF80688047B668284601F0A4
:10494000B0FB8642F3D170BD70B53D48314D04686F
:10495000046005F110000068C046064606E03068B5
:10496000016821421CBF80688047B66805F11000CD
:1049700001F097FB8642F2D170BD70B53148254DEC
:104980000468046005F120000068C046064606E0A1
:104990003068016821421CBF80688047B66805F115
:1049A000200001F07EFB8642F2D170BD70B5264832
:1049B000184D0468046005F130000068C0460646E2
:1049C00006E03068016821421CBF80688047B668F5
:1049D00005F1300001F065FB8642F2D170BD70B583
:1049E0001A480C4D0468046005F140000068C04698
:1049F000064606E03068016821421CBF8068804797
:104A0000B66805F1400001F04CFB8642F2D170BD62
:104A100000000000E80700200090044000A00440CF
:104A2000F807002000B004400808002000C004403F
:104A30001808002000D0044028080020A09004405E
:104A4000A0A00440A0B00440A0C00440A0D00440F6
:104A500010B5DFF840411821201D01F0B8FA0021FF
:104A60002160002010BD70B54B4801F05FFB04468B
:104A70000D46022001F066FB024600234FF0FF3096
:104A8000041B60EB05054FF47A76A6FB040106FBD8
:104A90000511BDE8704002F08DBA2DE9F0410446E1
:104AA0003C4F0D4616469846381D4068C0460146A4
:104AB000381D01F0A2FA0068046045608660C0F805
:104AC0000C80BDE8F0812DE9F047334ADFF8CCA037
:104AD0000121C2F82C11104601F028FB022001F040
:104AE00031FB2F480068C046064648E03768387BEF
:104AF000C10743D538682168B1FBF0F200FB121002
:104B0000796888423AD1DFF89080404601F00EFB88
:104B100004460D46022001F015FB024600234FF02B
:104B2000FF30041B60EB0505AAFB04010AFB05111D
:104B300002F040FABA6804460D469047F8688107CB
:104B400044BF80F00100F860404601F0EFFA804673
:104B50008946022001F0F6FA024600234FF0FF30AA
:104B6000B0EB080860EB0909AAFB08010AFB091170
:104B700002F020FA001BA941C7E90401B668054C00
:104B8000201D4068C0468642B0D12168491C216082
:104B9000BDE8F087380800200070034040420F0055
:104BA0003C0800204FF0010C13780CFA01F123B9F6
:104BB000426922EA0101416170475278002A0CBF24
:104BC000816041604269114341617047012002F0F8
:104BD00009BB30B4002513E050F8042BD30744BFC1
:104BE000A9F101039A18091F042942F8045BFAD2BB
:104BF00013468C0744BF15809B1CC90748BF1D7016
:104C000050F8041B0029E7D130BC704707490868F9
:104C100008B1002070470648C008C0000860054978
:104C2000C908C900091A0160704700BF3C0A00208A
:104C30006F0B0020680B0120002201F099B90000E1
:104C400062B38B0708D0521E11F8013B00F8013BFC
:104C500000F024808B07F6D1830740F0208000BF4E
:104C6000103A07D330B4B1E83810103AA0E8381041
:104C7000F9D230BC530724BFB1E80810A0E80810EF
:104C800044BF51F8043B40F8043BD20724BF31F83D
:104C9000022B20F8022B44BF0B7803707047121FC1
:104CA00017D35B0009D151F8043B20F8023B1B0CE1
:104CB000121F20F8023BF6D20BE051F8043B00F83B
:104CC000013B1B0A20F8023B1B0C121F00F8013BA2
:104CD000F3D238BF121D521E24BF11F8013B00F859
:104CE000013BF8D8704700000022FDF719B9000019
:104CF00070B481B018B901B070BC042070470021B5
:104D0000DFF8C821017041700226436843F03F0379
:104D100043601478D578816046614FF48051016119
:104D200044F20102DFF8A8110968090E01F00F0131
:104D30000F290FBF4FF480110FF2102636F8111013
:104D40008902C1604FF48076002181614162A640F2
:104D5000C168C661102391422CBF09094FF48061DC
:104D600081620822082180F8391005620421C3629B
:104D700080F8343080F8353080F8362080F83710ED
:104D800080F8383001B070BC02F036BA30B478B177
:104D90008568A94221BFC46865195418A54238BF67
:104DA000662017D34578642414FB05F5401902D119
:104DB00030BC04207047447844B10479E50705D538
:104DC00084680C1B04F50004046300E0016330BC3C
:104DD00002F046BA30BC704730B478B18568A94259
:104DE00021BFC46865195C18A54238BF662017D377
:104DF0004578642414FB05F5401902D130BC042029
:104E00007047447844B10479E50705D584680C1BE4
:104E100004F50004046300E0016330BC02F075BADD
:104E200030BC704730B478B18568A94221BFC468EE
:104E300065195418A54238BF662017D345786424F5
:104E400014FB05F5401902D130BC042070474478AA
:104E500044B10479E50705D584680C1B04F500040A
:104E6000046300E0016330BC02F0CABA30BC704792
:104E700070B584B078B18568A94221BFC46865194E
:104E80005418A54238BF66201CD34578642414FB0F
:104E900005F5401902D1042004B070BD447844B136
:104EA0000479E50705D584680C1B04F50004046348
:104EB00000E001630A9E099D089C029601950094FA
:104EC00002F007FB04B070BD02F069BB280002408D
:104ED0004C800440002818BF002A01D104207047EC
:104EE0000B0003D10069106000207047012908BF42
:104EF000C068F8D0022906D1C1684069B1FBF0F062
:104F0000106000207047032908BF4069EBD00429D6
:104F100008BF8068E7D0052905D14068C0F30010BC
:104F2000106000207047062908BFC069DBD0072940
:104F300008BF006AD7D0202908BFC06BD3D0212971
:104F400008BF006CCFD06A20704700000800100036
:104F5000180020003000400060008000C000000108
:104F600080010002000300040006000000B581B0CB
:104F700010B9042001B000BD416809B90F4A426070
:104F80001C2240680FA1FFF75BFE002001B000BDAE
:104F900070B5044681B96668094D0F2314224FF499
:104FA00070012846761CB0476468012313224FF431
:104FB00000212846641CA047002070BD180700206F
:104FC00004F0014010B5002905D004688C439340DB
:104FD000194021430160BFF36F8FBFF34F8F10BDA6
:104FE0000EB4C0B5024603A800210190009101ABA8
:104FF0000121044878440C3000F016F806BC5DF836
:1050000010FB00BF098400000648016841F005411B
:1050100001600268002AFCD4026822F0A0620260EB
:1050200070470000002008E02DE9F04F0FF2A41CAB
:10503000A1B0DCE90089CDE900892A9DDFF8DC9B7D
:10504000049100248DF843500D944FF0FF388246B0
:1050500016461F460FE0B3462C461BF8011B04986A
:10506000D0470028049000F0A2800D98401C641ED8
:105070000D90F2D176193078252808D10021002230
:105080000791089209910A920B910C920DE06A46E1
:105090004146304602F0DAFA050001D10D98A1E050
:1050A000D9D50125E6E741F0010116F8010F2028C6
:1050B000F9D023280CD02B2804D02D2805D0302857
:1050C00009D076E041F00201EFE741F00401ECE79E
:1050D00041F00801E9E741F01001E6E70F9209E02D
:1050E0000F98484505DA00EB800402EB4402303AA1
:1050F0000F92761C3278A2F130000A28F0D3307873
:105100002E2818BFCDF8388022D116F8010F2A2892
:1051100007D138683860761C50F8042B38600E923E
:1051200016E02D280CBF761C002000220E920AE00B
:1051300040B90E9A4A4505DA02EB820403EB4403B8
:10514000303B0E93761C3378A3F130020A2AEFD35A
:10515000ADF8401021A0317802F082FA08B116F8BB
:10516000010B8DF842009DF84200682804D1307888
:1051700068280AD1622105E06C2804BF30786C28C9
:1051800003D171218DF84210761C12A806903A4680
:1051900016F8013B02A9504600F064F838B912AA8B
:1051A00002A9504600F0C8F900287FF564AF4046D8
:1051B00018E02A2892D13A683A6052F8040B3A6013
:1051C00000280F9003D540420F9041F00401761C57
:1051D00095E700000000000000000000686A6C74A1
:1051E0007A4C000021B0BDE8F08F622820D06828FA
:1051F00011D06A2803D06C2827D0712825D10868DF
:10520000C01D20F007000860D0E9002308300860C6
:10521000194610467047002A0A680A60106803D0D1
:10522000121D0A6000B217E0121D0A6080B217E07A
:10523000002A0A680A60106803D0121D0A6040B292
:105240000AE0121D0A60C0B20AE0002A0A680A6079
:10525000106803D0121D0A60C1177047121D0A6042
:10526000002170477CB50D4611461C462E69B4F1ED
:10527000250200F04F811C3A00F08480121F022AA0
:1052800040F280800E3A00F00981521F59D0093A4D
:1052900078D0921E16D0521E35D0521E022A71D9D5
:1052A000121F30D0521F00F09880521E49D0521E5B
:1052B00000F0E280D21E00F0FF80921E41D0D21E8C
:1052C0003FD02DE195F83A406C2C09D06869421C1A
:1052D0006A610A680A6052F8043B0A60335429E1A3
:1052E0000A680A6052F8043B0A60009300220192A7
:1052F0004FF0FF332B636A46294600F098F90028E7
:1053000040F1188103E195F83A000122FFF76DFFA3
:10531000C5E90001002904D56869411C69612D2295
:105320000DE0288F810704D56869411C69612B2233
:1053300005E0C00721D56869411C6961202232540B
:105340001BE095F83A000022FFF74FFFC5E9000186
:1053500095F83800010710D5D5E90023002B08BFC8
:10536000002A0AD044F02000782806D1686930214C
:105370003154401C421C6A613454214668693044EF
:10538000E86087E00868C01D20F007000860D0E9E9
:10539000002308300860C5E90023D5E90001C80FE3
:1053A00004D06869411C69612D220DE0288F8107B6
:1053B00004D56869411C69612B2205E0C00704D54A
:1053C0006869411C69612022325468693044E86090
:1053D0002146284600F036FAACE005F13A02507852
:1053E00020B14FF0FF340FF6043074E010786228DB
:1053F00008D0682824D06A2812D06C282ED07128B2
:105400000ED02BE00A680A6052F8040B0A6020B93B
:105410004FF0FF340FF6EC205DE0E96A017089E09F
:105420000A680A6052F8040B0A6020B94FF0FF3492
:105430000FF6D0204FE0EA6AD317C0E9002379E0E5
:105440000A680A6052F8040B0A6020B94FF0FF3472
:105450000FF6B0203FE0E96A01806BE00A680A605D
:1054600052F8040B0A6020B94FF0FF340FF6942075
:1054700031E0E96A01605DE00A680A6052F8040BF5
:105480000A60002120F0000221F0FF33C5E900236B
:10549000EE607821284600F02DF94BE06C2285F86B
:1054A0003A200B680B6053F8042B0B6052BB4FF093
:1054B000FF340FF684200EE095F83A206C2AF0D0E5
:1054C0000868086050F8044B0860EC603CB94FF085
:1054D000FF340FF6482002F0F3F8201A76BD2E6B49
:1054E000002E04D5204602F00BF9044608E03246AF
:1054F0000021204602F020F9002814BF041B344686
:10550000AC6117E0294600F092F8002812D54FF060
:10551000FF3076BD6869411C69612522325409E07B
:105520006969481C686125227254210002D0431C1D
:105530006B613454002076BD2DE9F0410E460546DE
:105540009046726B7069316AB46A121AB069521A65
:10555000716A121AF069521A121A96F83800141B5E
:1055600041070DD4002C0BDD2746B0682021A84749
:105570000028B06057D0F06A401C7F1EF062F4D162
:10558000736942463146284600F098FC00284AD10B
:10559000376A002F0ADDB0683021A8470028B060C4
:1055A00041D0F06A401C7F1EF062F4D1B369F2680A
:1055B0003146284600F082FCA8BB776A002F09DD3F
:1055C000B0683021A847B06068B3F06A401C7F1E05
:1055D000F062F5D1F068B169F369421831462846A6
:1055E00000F06CFCF8B9B76A002F09DDB068302113
:1055F000A847B060B8B1F06A401C7F1EF062F5D1D8
:1056000096F8380041070BD5002C09DDB068202141
:10561000A847B06038B1F06A401C641EF062F5D152
:105620000020BDE8F0814FF0FF30BDE8F0812DE9AA
:10563000F8470D46A3B02F6B002F0646904648BF93
:105640006FF000470FF60C1402F0A2F8D4E9002323
:10565000696B4018CDE90123812828BF4FF0FF3046
:1056600042D20024002F33DDD8F8001001AA68468A
:1056700001F0EEFF8146B9F1000F38D4D8F80000F0
:1056800010B9B9F1010932D44F4521DB68694844AA
:1056900081280AD30021696303AA29463046FFF70F
:1056A0004BFF040014D40020686103ABD5F814A0AC
:1056B0004A46694603EB0A00FFF7C2FACA44C5F836
:1056C00014A058F8040B002818BFA7EB0907C9D18C
:1056D0004CB903AA29463046FFF72EFF044614B9F9
:1056E000002068616863204624B0BDE8F0874FF071
:1056F000FF34F8E72DE9FC4307466F293E6908BFF0
:10570000082405D041F02000782814BF0A24102472
:105710003C25D7E90023642918BF6929904699469A
:1057200005D1002B03D5D8F1000869EB4909B9F17F
:10573000000F08BFB8F1000F1FD1386BE8B9082C73
:105740004CD197F83800010748D530203B2586F822
:105750003B0043E000280ED597F8380000F0140015
:10576000102808D17B6B7969386A5B1A1B1A9A1A60
:10577000002AC8BF3A62BDE8F3838DF800104046A6
:1057800049462246E31701F015FC3032D0B26D1EB7
:105790003A28019504DB9DF80000A0F151018A1818
:1057A0007255404649462246E31701F003FC804605
:1057B0005FEA010908BFB8F1000F03D0F86871195A
:1057C0008842DCD3082C09D197F83800010705D5A9
:1057D000705D302802D06D1E30207055C5F13C023E
:1057E000BA617119F960386B8242B3DA821A3A628F
:1057F0004FF6EF70398F01403987BDE8F3832DE90B
:10580000D04306460F4614464FF00008DFF81094C8
:1058100012E0E00707D542464B4630463946FEF7D0
:1058200093FD06460F464046494642464B46FEF724
:105830008BFD641080468946002CEAD130463946FB
:10584000BDE8D0832DE9F84F05468A464AF020048A
:105850008EB0D5E90089612C02AE09D0286B0028F2
:1058600048BF062003D408BF672C01D1012028635C
:10587000D5E900014A005215521C0DD10B030BD083
:10588000AAF1610103201A29A86102D20FF2CC61AA
:1058900010E00FF2CC610DE04A005215521C0ED1FF
:1058A0000B030CD1AAF1610103201A29A86116D3B8
:1058B0000FF2B461E8680322FFF7C2F9C0E1CDE955
:1058C0000C01DDE90C2323F00043B3F5801F0DD25A
:1058D0000027002B08BF002A019703D111E00FF227
:1058E0008461E7E701AA01F059FF0AE0CD48CE49FB
:1058F00000EB1350DDE90C2301900B40CB4910461F
:105900001943C5E90001612C0DD1E868302101700F
:10591000821CBAF1610FEA600CBF782158214170F6
:105920006869801C6861D5E90001CDE90C01DDE9F9
:105930000C2333F0004104BF0028002300F048810D
:10594000612C40F0A080286B494600284CBF4FF0E6
:10595000210B00F1010B404600220023DDE90C89F8
:1059600001F054FF01990BF1010738BF89F000499C
:10597000091F002F01918DF808200DF1090040F357
:105980003581A94900910646404649460022002338
:1059900001F054FF80F029814800400D00F11C0205
:1059A00011D0002A0FDD40F2FF739A4205DBA049B7
:1059B00009F000400143002011E0009B194041EA3A
:1059C000025140460BE028F0000039F0004108BFCA
:1059D00000280FBF49461C22494601F047FF804678
:1059E0008946FEF787FDFF1F002F044609DDFEF7FD
:1059F0008DFC02460B464046494601F0D5FF8046E5
:105A00008946F01D072104E004F00F0200F8012D83
:105A10002411002C01DD491EF6D5491E5CBF002271
:105A200000F8012DF9D5DCE00020194602AA0A444D
:105A300000E05B1E12F80149491E8442F9D00F288C
:105A400004D10DF10900425C521C4254002904D5D6
:105A50000198001D02AE5B1C0190581E0CD4311839
:105A6000AAF13A040A783032D7B23A2FA8BFA21866
:105A7000401E01F80129F5D5286B002840F1A780C8
:105A8000591E2963A3E001996A4A47F2975041439E
:105A900091FBF2F2019229F00046D2F1070204DDF7
:105AA00040463146FFF7ABFE0AE052420020624911
:105AB000FFF7A5FE02460B464046314601F0E6FFE1
:105AC0008046662C286B06BF019F0A3706273F18C1
:105AD000142FC8BF142730208DF8080089460DF117
:105AE000090000E03046002F34DD064640464946B6
:105AF00002F0F0F801460A4606F1080304200A26DF
:105B0000B2FBF6F606EB860EA2EB4E02303203F83D
:105B1000012C0A22B6FBF2F202EB820EA6EB4E0635
:105B20003036401E03F8026DE9D1083F002F03F123
:105B30000806D7DD084602F0E1F802460B4640466B
:105B4000494601F031FF00223C4BFEF7FDFB804649
:105B50008946CBE70DF10901401A0DF1090604E071
:105B60000199491E401E0191761C31783029F7D0E9
:105B7000662C02D10199491C03E0652C0CBF012160
:105B800000212B6BCB189842B8BF431E002B1ED4AC
:105B9000834204DAF05C3528A8BF392000DA3020CF
:105BA0001946721E02EB010800E05B1E18F801990D
:105BB000491E8145F9D0392802D1705C401C7054CF
:105BC000002904D50198401C16465B1C01900198E1
:105BD00000B200901BB232465146284600F034F81D
:105BE0002EE0C61D002F3FF7CFAE30460DF1090164
:105BF000401A03465845C8BF5B46002B0DF1090605
:105C00003FF53AAF8342BFF60FAF0DF10900C15C1B
:105C100007297FF709AF0F2007E70000CBCCCC0C9A
:105C20000000244002FCFFFFFFFF0F800000E03F68
:105C30000000F07FA08601000000F03F84D797416C
:105C40000FB0BDE8F08F00002DE9F84783B006469D
:105C50008A461746984601F0FDFCB8F1000F406AED
:105C6000356B90F8009002DC4FF00108BFA74AF0B6
:105C70002000BDF93040662808BF641C15D0672895
:105C800040F0848014F1040FC0F28680AC4280F2B0
:105C9000838096F83800641C010702D4A845B8BF79
:105CA000454620B22D1A48BF00250FFA84FAF06845
:105CB000B169BAF1000F25DC4A1C30234354002D92
:105CC00003DC96F83800010703D5F06800F802906D
